S027000077726974655F6172616269635F616E645F656E676C6973685F6F6E5F4C43442E73726563C8
S11300000C94BA000C94CF000C94CF000C94CF0045
S11300100C94CF000C94CF000C94CF000C94CF0020
S11300200C94CF000C94CF000C94CF000C94CF0010
S11300300C94CF000C94CF000C94CF000C94CF0000
S11300400C94CF000C94CF000C94CF000C94CF00F0
S11300500C94CF00DD00F6000F012801400140019F
S11300604001400140014001400140014001400184
S11300704001400140014001400140014001400174
S11300804001400140014001400140014001400164
S113009040014001DD00F6000F0128014D01660119
S11300A07F019801B001B001B001B001B001B0010D
S11300B0B001B001B001B001B001B001B001B001B4
S11300C0B001B001B001B001B001B001B001B001A4
S11300D0B001B001B001B001B001B0014D01660141
S11300E07F019801BC01BE01C001C201C301C3016B
S11300F0C301C301C301C301C301C301C301C301DC
S1130100C301C301C301C301C301C301C301C301CB
S1130110C301C301C301C301C301C301C301C301BB
S1130120C301C301BC01BE01C001C201CF01D101A1
S1130130D301D501D601D601D601D601D601D60107
S1130140D601D601D601D601D601D601D601D601F3
S1130150D601D601D601D601D601D601D601D601E3
S1130160D601D601D601D601D601D601CF01D101DF
S1130170D301D50111241FBECFE5D8E0DEBFCDBF2A
S113018010E0A0E6B0E0ECECF8E002C005900D92BF
S1130190AE3AB107D9F70E94BA020C9464040C94E5
S11301A0000090E0FC01E154F109E432F10508F0AB
S11301B067C0E65DFF4F0C945E04413059F42AB3E6
S11301C081E090E002C0880F991F6A95E2F7822BC4
S11301D08ABB08952AB381E090E002C0880F991F7A
S11301E06A95E2F7809582238ABB0895413059F4D9
S11301F027B381E090E002C0880F991F6A95E2F767
S1130200822B87BB089527B381E090E002C0880F5A
S1130210991F6A95E2F78095822387BB0895413040
S113022059F424B381E090E002C0880F991F6A95C5
S1130230E2F7822B84BB089524B381E090E002C0EE
S1130240880F991F6A95E2F78095822384BB0895ED
S1130250413059F421B381E090E002C0880F991F26
S11302606A95E2F7822B81BB089521B381E090E087
S113027002C0880F991F6A95E2F78095822381BB9B
S1130280089590E0FC01E154F109E432F10508F02D
S113029067C0E25BFF4F0C945E04413059F42BB30A
S11302A081E090E002C0880F991F6A95E2F7822BE3
S11302B08BBB08952BB381E090E002C0880F991F97
S11302C06A95E2F7809582238BBB0895413059F4F7
S11302D028B381E090E002C0880F991F6A95E2F785
S11302E0822B88BB089528B381E090E002C0880F78
S11302F0991F6A95E2F78095822388BB089541305F
S113030059F425B381E090E002C0880F991F6A95E3
S1130310E2F7822B85BB089525B381E090E002C00B
S1130320880F991F6A95E2F78095822385BB08950B
S1130330413059F422B381E090E002C0880F991F44
S11303406A95E2F7822B82BB089522B381E090E0A4
S113035002C0880F991F6A95E2F78095822382BBB9
S1130360089590E0FC01E154F109E432F10558F4F8
S1130370EE58FF4F0C945E046ABB089567BB089562
S113038064BB089561BB089590E0FC01E154F10958
S1130390E432F10558F4EA56FF4F0C945E046BBB4B
S11303A0089568BB089565BB089562BB089541E054
S11303B062E083E40E9441018FE99FE00197F1F735
S11303C000C0000040E062E083E40E9441018FE944
S11303D09FE00197F1F700C000000895CF93C82F64
S11303E040E060E083E40E9441016C2F84E40E94B9
S11303F0C4010E94D7018FEC97E00197F1F700C088
S11304000000CF9108952FEF81EE94E021508040B9
S11304109040E1F700C000006FEF84E40E94B10156
S113042041E062E083E40E94D10041E061E083E4C2
S11304300E94D10041E060E083E40E94D10040E0EA
S113044061E083E40E94410188E30E94EE018FECA5
S113045097E00197F1F700C0000081E00E94EE01EF
S11304608FE19EE40197F1F700C000008EE00E9446
S1130470EE018FEC97E00197F1F700C0000086E0F1
S11304800E94EE018FEC97E00197F1F700C00000A5
S11304900895CF93C82F41E060E083E40E944101B6
S11304A06C2F84E40E94C4010E94D701CF91089567
S11304B0CF93DF93EC0103C00E9449022196888107
S11304C08111FACFDF91CF91089581E00E94EE016E
S11304D08FE19EE40197F1F700C0000008959FEFBB
S11304E0980F923070F4613170F4662371F08130AA
S11304F019F48FE7860F0CC0823049F48FEB860F16
S113050007C080E805C080E803C080E801C080E03F
S11305100E94EE018FEC97E00197F1F700C0000014
S113052008950F931F93CF93DF938C0180E40E946F
S1130530EE01D0E015C0ED2FF0E0EE0FFF1FEE0F3F
S1130540FF1FEE0FFF1FE00FF11FEC0FF11D808165
S11305500E944902CF5F01C0C0E0C83060F3DF5F92
S1130560D830D0F380E80E94EE01DF91CF911F9143
S11305700F910895CF93DF93CDB7DEB7C054D1095F
S11305800FB6F894DEBF0FBECDBF80E4E0E6F0E026
S1130590DE01119601900D928A95E1F70E94030203
S11305A0CE0101960E9491022FEF80E792E0215044
S11305B080409040E1F700C0000081E40E944902BD
S11305C02FEF80E792E0215080409040E1F700C097
S11305D0000088E60E9449022FEF80E792E0215054
S11305E080409040E1F700C000008DE60E9449027F
S11305F02FEF80E792E0215080409040E1F700C067
S1130600000085E60E9449022FEF80E792E0215026
S113061080409040E1F700C0000084E60E94490257
S11306202FEF80E792E0215080409040E1F700C036
S1130630000080E20E9449022FEF80E792E02150FF
S113064080409040E1F700C000008DE40E94490220
S11306502FEF80E792E0215080409040E1F700C006
S113066000008FE60E9449022FEF80E792E02150BC
S113067080409040E1F700C0000087E60E944902F4
S11306802FEF80E792E0215080409040E1F700C0D6
S113069000008FE60E9449022FEF80E792E021508C
S11306A080409040E1F700C0000084E60E944902C7
S11306B02FEF80E792E0215080409040E1F700C0A6
S11306C0000081E60E9449022FEF87EA91E621505B
S11306D080409040E1F700C000000E94650260E1A4
S11306E081E00E946F0284E00E94EE012FEF80E718
S11306F092E0215080409040E1F700C0000080E08B
S11307000E9449022FEF80E792E021508040904000
S1130710E1F700C0000081E00E9449022FEF80E76A
S113072092E0215080409040E1F700C0000085E055
S11307300E9449022FEF80E792E0215080409040D0
S1130740E1F700C0000083E00E9449022FEF80E738
S113075092E0215080409040E1F700C0000080E228
S11307600E9449022FEF80E792E0215080409040A0
S1130770E1F700C0000085E00E9449022FEF80E706
S113078092E0215080409040E1F700C0000082E0F8
S11307900E9449022FEF80E792E021508040904070
S11307A0E1F700C0000084E00E9449022FEF80E7D7
S11307B092E0215080409040E1F700C0000083E0C7
S11307C00E9449022FEF80E792E021508040904040
S11307D0E1F700C0000086E00E9449022FEF80E7A5
S11307E092E0215080409040E1F700C0000080E298
S11307F00E9449022FEF80E792E021508040904010
S1130800E1F700C0000087E00E9449022FEF87EA69
S113081091E6215080409040E1F700C000000E9422
S113082065022FEF80E792E0215080409040E1F78D
S113083000C0000080EA90E00E9458022FEF89E691
S113084098E1215080409040E1F700C0000060E151
S113085082E00E946F0284E00E94EE0180E00E9428
S1130860490281E00E94490285E00E94490283E036
S11308700E94490280E20E94490285E00E944902E6
S113088082E00E94490284E00E94490283E00E94BF
S1130890490286E00E94490280E20E94490287E000
S11308A00E94490280E090E0C05CDF4F0FB6F894EC
S11308B0DEBF0FBECDBFDF91CF910895EE0FFF1FB6
S10F08C00590F491E02D0994F894FFCF0A
S11308CC07040F060606060610180C06031F1F0065
S11308DC101806031F1F0C0C000303031F1F00003A
S11308EC001F13131F031F0000000E091919060023
S11308FC000E1111110E000000111B1F1F0E04001D
S111090C41686D6564204D6F676F6461000083
S9030000FC
